:1006EB00410018004100190041001A00420014009B
:0606FB000142001601F4AB
:0B05C600900020EBF0A3EAF0A3E9F0A6
:1005D100E4FFFE900020E0FBA3E0FAA3E0F98F82A4
:1005E1008E83120026601B900020E0A3E0A3E00FA1
:1005F100EFAC0670010E14F5828C83120026F5997A
:0206010080D1A6
:0106030022D4
:0401FD00AB07AA069C
:10020100900010E4F0A3740FF0900010E0FEA3E062
:100211002400F58274003EF583E4F0EBAE02781F12
:10022100CEC313CE13D8F9FF900012EEF0A3EFF076
:100231004E600DEBF4FFEAF4FEEF2401FBE43EFA1D
:10024100900011E024FFF0900010E034FFF07C00FA
:100251007D0AAF03AE02120053ED2430FFE0FCA390
:10026100E02400F58274003CF583EFF07C007D0A08
:10027100AF03AE02120053AA06AB07EB4A70C1905E
:100281000012E07002A3E0601E900011E024FFF074
:10029100900010E034FFF0E0FEA3E02400F582744A
:1002A100003EF583742DF0900010E0FEA3E02400E1
:0A02B100F974003EFA7B011205C645
:0102BB002220
:03000300B2922294
:1006D100A2AF9200C2AF75C7AA75C755E4F591A242
:0A06E1000092AF53B3FB43B40422B0
:10068B00E4FDFC7C0B7DB81201D0E47BE87A03F926
:10069B00F81200FAAC06AD07ECF5D5EDF5DDD2DEC0
:0206AB00D2DF9C
:0106AD00222A
:1005130090001C12019F00000000A2AF9200C2AF26
:1005230075C7AA75C755E4F591A20092AF53B1FE02
:1005330043B20143DE0853DF3F53DFF843DF039049
:10054300001C12019F00000BB790001CE0FCA3E00D
:10055300FDA3E0FEA3E0FF780812018C8FD1900089
:100563001CE0FCA3E0FDA3E0FEA3E0FFE48FD9FFC2
:0B057300FE12068B90001AE04401F01D
:01057E00225A
:10049C00900014E475F0011200A8FEE5F064644EBF
:1004AC007064900014F0A304F0A3E0FEA3E0FF122C
:1004BC00068B90001AE0FF30E0047E0180027E0083
:1004CC00EE6010900017E004F07006900016E00447
:1004DC00F0800E900017E024FFF0900016E034FF3F
:1004EC00F0900016E0FCA3E0FDBC030CBDE809EFA6
:1004FC0054FE90001AF0800BED4C700790001AE03F
:06050C004401F01200039F
:0105120022C6
:03000B0002057F6C
:10057F00C0E0C0F0C083C082C0D075D000C000C042
:10058F0001C002C003C004C005C006C00790001818
:10059F00E0F58CA3E0F58AC28D12049CD007D0063B
:1005AF00D005D004D003D002D001D000D0D0D0825B
:0705BF00D083D0F0D0E03240
:1006AE00E490001CF0A3F05389F0438901900018E8
:1006BE0074F8F0A37430F0758CF8F58AD2A9D2AF25
:0206CE00D28CCC
:0106D0002207
:10064100AC07EFD3947F501C90001AE0FE30E10418
:100651007D0180027D00ED600BEE54FD90001AF0EB
:05066100AF048000223F
:03002300020604CE
:10060400C0E0C083C082C0D075D000C004C005C0A3
:1006140006C00730980E90001AE04402F0AF991219
:100624000641C298309905200102C299D007D0062C
:0D063400D005D004D0D0D082D083D0E032E9
:1002BC0090001C12019F0001C200A2AF9200C2AFBD
:1002CC0075C7AA75C755E4F591A20092AF53B1BF9B
:1002DC0053B2BF75985043878053C4F8A2AF9200B5
:1002EC00C2AF75C7AA75C755F591A20092AF43C4AA
:1002FC002090001CE0F8A3E0F9A3E0FAA3E0FB7F58
:10030C00607EE37D167C001200FAC3E49FFFE49E3E
:10031C00FE74019DFDE49CFC780812018C8FC69044
:10032C00001CE0F8A3E0F9A3E0FAA3E0FB7F607EF9
:10033C00E37D167C001200FAC3E49FFFE49EFE747A
:10034C00019DFDE49CFCEFE48FC5A2AF9200C2AF0F
:10035C0075C7AA75C755F591A20092AF43C408D2D0
:07036C00ACD2AFD299D2011F
:010373002267
:10040E00E58720E40302049BA2AF9200C2AF75C73A
:10041E00AA75C755439F01A20092AF75A638E4F5A1
:10042E00A775AF04A2AF9200C2AF75C7AA75C75524
:10043E0043A401A20092AF85AE0875A639F5A7A216
:10044E00AF9200C2AF75C7AA75C75543A401A200EB
:10045E0092AF85AE09A2AF9200C2AF75C7AA75C79B
:10046E0055539FFEA20092AF75C7AA75C755850852
:10047E008475C7AA75C755850985A2AF9200C2AF0C
:0D048E0075C7AA75C755539FFEA20092AF17
:01049B00223E
:1006660012040EA2AF9200C2AF75C7AA75C755E4B1
:10067600F591A20092AFF5B1F5B2F5B3F5B4F5ACCC
:05068600F5ADD2AF222A
:10000E001206661202BC1205131206D11206AE803B
:02001E00FE22C0
:0300000002037484
:10037400787FE4F6D8FD9000007FFF7E03E4F0A3CD
:0A038400DFFCDEFA7581200203C9D8
:10038E0002000EE493A3F8E493A34003F68001F277
:10039E0008DFF48029E493A3F85407240CC8C33370
:1003AE00C4540F4420C8834004F456800146F6DF3F
:1003BE00E4800B01020408102040809006EBE47EDE
:1003CE00019360BCA3FF543F30E509541FFEE49334
:1003DE00A360010ECF54C025E060A840B8E493A3FB
:1003EE00FAE493A3F8E493A3C8C582C8CAC583CA26
:1003FE00F0A3C8C582C8CAC583CADFE9DEE780BEDE
:0107010000F7
:10002600BB010CE58229F582E5833AF583E022508F
:1000360006E92582F8E622BBFE06E92582F8E222D9
:0D004600E58229F582E5833AF583E49322F3
:10005300BC000BBE0029EF8DF084FFADF022E4CC91
:10006300F875F008EF2FFFEE33FEEC33FCEE9DEC5A
:10007300984005FCEE9DFE0FD5F0E9E4CEFD22EDA0
:10008300F8F5F0EE8420D21CFEADF075F008EF2FEA
:10009300FFED33FD4007985006D5F0F222C398FDDB
:0500A3000FD5F0EA2278
:1000A800A3F8E0C5F025F0F0E5821582700215830B
:0600B800E0C838F0E82268
:1000BE0075F008758200EF2FFFEE33FECD33CDCCF9
:1000CE0033CCC58233C5829BED9AEC99E58298407C
:1000DE000CF582EE9BFEED9AFDEC99FC0FD5F0D659
:1000EE00E4CEFBE4CDFAE4CCF9A88222B800C1B983
:1000FE000059BA002DEC8BF084CFCECDFCE5F0CBC1
:10010E00F97818EF2FFFEE33FEED33FDEC33FCEBF9
:10011E0033FB10D703994004EB99FB0FD8E5E4F9B4
:10012E00FA227818EF2FFFEE33FEED33FDEC33FCA1
:10013E00C933C910D7059BE99A4007EC9BFCE99A95
:10014E00F90FD8E0E4C9FAE4CCFB2275F010EF2FDA
:10015E00FFEE33FEED33FDCC33CCC833C810D707DA
:10016E009BEC9AE899400AED9BFDEC9AFCE899F815
:0E017E000FD5F0DAE4CDFBE4CCFAE4C8F922A8
:10018C00E8600FECC313FCED13FDEE13FEEF13FF51
:03019C00D8F12275
:10019F00A8828583F0D083D0821201B61201B612E5
:1001AF0001B61201B6E473E493A3C583C5F0C5830A
:1001BF00C8C582C8F0A3C583C5F0C583C8C582C8AA
:0101CF00220D
:1001D000EC8EF0A4CCC5F0CCCDF8EFA4CEC5F02DBC
:1001E000FDE43CFCE8A42EC8C5F03DFDE43CFCEF7A
:0D01F000A4FFE5F028FEE43DFDE43CFC2208
:00000001FF
